{
  "_format": "hh-sol-artifact-1",
  "contractName": "MyNFT",
  "sourceName": "contracts/my-nft.sol",
  "abi": [
    {
      "inputs": [],
      "stateMutability": "nonpayable",
      "type": "constructor"
    },
    {
      "anonymous": false,
      "inputs": [
        {
          "indexed": true,
          "internalType": "address",
          "name": "owner",
          "type": "address"
        },
        {
          "indexed": true,
          "internalType": "address",
          "name": "approved",
          "type": "address"
        },
        {
          "indexed": true,
          "internalType": "uint256",
          "name": "tokenId",
          "type": "uint256"
        }
      ],
      "name": "Approval",
      "type": "event"
    },
    {
      "anonymous": false,
      "inputs": [
        {
          "indexed": true,
          "internalType": "address",
          "name": "owner",
          "type": "address"
        },
        {
          "indexed": true,
          "internalType": "address",
          "name": "operator",
          "type": "address"
        },
        {
          "indexed": false,
          "internalType": "bool",
          "name": "approved",
          "type": "bool"
        }
      ],
      "name": "ApprovalForAll",
      "type": "event"
    },
    {
      "anonymous": false,
      "inputs": [
        {
          "indexed": true,
          "internalType": "address",
          "name": "caller",
          "type": "address"
        },
        {
          "indexed": true,
          "internalType": "uint256",
          "name": "tokenId",
          "type": "uint256"
        }
      ],
      "name": "LogMint",
      "type": "event"
    },
    {
      "anonymous": false,
      "inputs": [
        {
          "indexed": true,
          "internalType": "address",
          "name": "caller",
          "type": "address"
        },
        {
          "indexed": true,
          "internalType": "uint256",
          "name": "amount",
          "type": "uint256"
        }
      ],
      "name": "LogRefund",
      "type": "event"
    },
    {
      "anonymous": false,
      "inputs": [
        {
          "indexed": true,
          "internalType": "address",
          "name": "caller",
          "type": "address"
        },
        {
          "indexed": false,
          "internalType": "string",
          "name": "baseURI",
          "type": "string"
        }
      ],
      "name": "LogSetBaseURI",
      "type": "event"
    },
    {
      "anonymous": false,
      "inputs": [
        {
          "indexed": true,
          "internalType": "address",
          "name": "previousOwner",
          "type": "address"
        },
        {
          "indexed": true,
          "internalType": "address",
          "name": "newOwner",
          "type": "address"
        }
      ],
      "name": "OwnershipTransferred",
      "type": "event"
    },
    {
      "anonymous": false,
      "inputs": [
        {
          "indexed": true,
          "internalType": "address",
          "name": "from",
          "type": "address"
        },
        {
          "indexed": true,
          "internalType": "address",
          "name": "to",
          "type": "address"
        },
        {
          "indexed": true,
          "internalType": "uint256",
          "name": "tokenId",
          "type": "uint256"
        }
      ],
      "name": "Transfer",
      "type": "event"
    },
    {
      "inputs": [],
      "name": "MAX_SUPPLY",
      "outputs": [
        {
          "internalType": "uint256",
          "name": "",
          "type": "uint256"
        }
      ],
      "stateMutability": "view",
      "type": "function"
    },
    {
      "inputs": [],
      "name": "PRICE_PER_TOKEN",
      "outputs": [
        {
          "internalType": "uint256",
          "name": "",
          "type": "uint256"
        }
      ],
      "stateMutability": "view",
      "type": "function"
    },
    {
      "inputs": [
        {
          "internalType": "address",
          "name": "to",
          "type": "address"
        },
        {
          "internalType": "uint256",
          "name": "tokenId",
          "type": "uint256"
        }
      ],
      "name": "approve",
      "outputs": [],
      "stateMutability": "nonpayable",
      "type": "function"
    },
    {
      "inputs": [
        {
          "internalType": "address",
          "name": "owner",
          "type": "address"
        }
      ],
      "name": "balanceOf",
      "outputs": [
        {
          "internalType": "uint256",
          "name": "",
          "type": "uint256"
        }
      ],
      "stateMutability": "view",
      "type": "function"
    },
    {
      "inputs": [
        {
          "internalType": "uint256",
          "name": "tokenId",
          "type": "uint256"
        }
      ],
      "name": "getApproved",
      "outputs": [
        {
          "internalType": "address",
          "name": "",
          "type": "address"
        }
      ],
      "stateMutability": "view",
      "type": "function"
    },
    {
      "inputs": [
        {
          "internalType": "address",
          "name": "owner",
          "type": "address"
        },
        {
          "internalType": "address",
          "name": "operator",
          "type": "address"
        }
      ],
      "name": "isApprovedForAll",
      "outputs": [
        {
          "internalType": "bool",
          "name": "",
          "type": "bool"
        }
      ],
      "stateMutability": "view",
      "type": "function"
    },
    {
      "inputs": [
        {
          "internalType": "uint256",
          "name": "_amount",
          "type": "uint256"
        }
      ],
      "name": "mint",
      "outputs": [],
      "stateMutability": "payable",
      "type": "function"
    },
    {
      "inputs": [],
      "name": "name",
      "outputs": [
        {
          "internalType": "string",
          "name": "",
          "type": "string"
        }
      ],
      "stateMutability": "view",
      "type": "function"
    },
    {
      "inputs": [],
      "name": "owner",
      "outputs": [
        {
          "internalType": "address",
          "name": "",
          "type": "address"
        }
      ],
      "stateMutability": "view",
      "type": "function"
    },
    {
      "inputs": [
        {
          "internalType": "uint256",
          "name": "tokenId",
          "type": "uint256"
        }
      ],
      "name": "ownerOf",
      "outputs": [
        {
          "internalType": "address",
          "name": "",
          "type": "address"
        }
      ],
      "stateMutability": "view",
      "type": "function"
    },
    {
      "inputs": [],
      "name": "renounceOwnership",
      "outputs": [],
      "stateMutability": "nonpayable",
      "type": "function"
    },
    {
      "inputs": [
        {
          "internalType": "address",
          "name": "from",
          "type": "address"
        },
        {
          "internalType": "address",
          "name": "to",
          "type": "address"
        },
        {
          "internalType": "uint256",
          "name": "tokenId",
          "type": "uint256"
        }
      ],
      "name": "safeTransferFrom",
      "outputs": [],
      "stateMutability": "nonpayable",
      "type": "function"
    },
    {
      "inputs": [
        {
          "internalType": "address",
          "name": "from",
          "type": "address"
        },
        {
          "internalType": "address",
          "name": "to",
          "type": "address"
        },
        {
          "internalType": "uint256",
          "name": "tokenId",
          "type": "uint256"
        },
        {
          "internalType": "bytes",
          "name": "_data",
          "type": "bytes"
        }
      ],
      "name": "safeTransferFrom",
      "outputs": [],
      "stateMutability": "nonpayable",
      "type": "function"
    },
    {
      "inputs": [
        {
          "internalType": "address",
          "name": "operator",
          "type": "address"
        },
        {
          "internalType": "bool",
          "name": "approved",
          "type": "bool"
        }
      ],
      "name": "setApprovalForAll",
      "outputs": [],
      "stateMutability": "nonpayable",
      "type": "function"
    },
    {
      "inputs": [
        {
          "internalType": "string",
          "name": "baseURI",
          "type": "string"
        }
      ],
      "name": "setBaseURI",
      "outputs": [],
      "stateMutability": "nonpayable",
      "type": "function"
    },
    {
      "inputs": [
        {
          "internalType": "bytes4",
          "name": "interfaceId",
          "type": "bytes4"
        }
      ],
      "name": "supportsInterface",
      "outputs": [
        {
          "internalType": "bool",
          "name": "",
          "type": "bool"
        }
      ],
      "stateMutability": "view",
      "type": "function"
    },
    {
      "inputs": [],
      "name": "symbol",
      "outputs": [
        {
          "internalType": "string",
          "name": "",
          "type": "string"
        }
      ],
      "stateMutability": "view",
      "type": "function"
    },
    {
      "inputs": [
        {
          "internalType": "uint256",
          "name": "tokenId",
          "type": "uint256"
        }
      ],
      "name": "tokenURI",
      "outputs": [
        {
          "internalType": "string",
          "name": "",
          "type": "string"
        }
      ],
      "stateMutability": "view",
      "type": "function"
    },
    {
      "inputs": [],
      "name": "totalSupply",
      "outputs": [
        {
          "internalType": "uint256",
          "name": "",
          "type": "uint256"
        }
      ],
      "stateMutability": "view",
      "type": "function"
    },
    {
      "inputs": [
        {
          "internalType": "address",
          "name": "from",
          "type": "address"
        },
        {
          "internalType": "address",
          "name": "to",
          "type": "address"
        },
        {
          "internalType": "uint256",
          "name": "tokenId",
          "type": "uint256"
        }
      ],
      "name": "transferFrom",
      "outputs": [],
      "stateMutability": "nonpayable",
      "type": "function"
    },
    {
      "inputs": [
        {
          "internalType": "address",
          "name": "newOwner",
          "type": "address"
        }
      ],
      "name": "transferOwnership",
      "outputs": [],
      "stateMutability": "nonpayable",
      "type": "function"
    },
    {
      "inputs": [],
      "name": "withdraw",
      "outputs": [],
      "stateMutability": "nonpayable",
      "type": "function"
    }
  ],
  "bytecode": "0x608060405260405180602001604052806000815250600990805190602001906200002b929190620001ce565b503480156200003957600080fd5b506040518060400160405280601781526020017f4d7920426f7265642041706520596174636820436c75620000000000000000008152506040518060400160405280600381526020017f41504500000000000000000000000000000000000000000000000000000000008152508160009080519060200190620000be929190620001ce565b508060019080519060200190620000d7929190620001ce565b505050620000fa620000ee6200010060201b60201c565b6200010860201b60201c565b620002e3565b600033905090565b6000600760009054906101000a900473ffffffffffffffffffffffffffffffffffffffff16905081600760006101000a81548173ffffffffffffffffffffffffffffffffffffffff021916908373ffffffffffffffffffffffffffffffffffffffff1602179055508173ffffffffffffffffffffffffffffffffffffffff168173ffffffffffffffffffffffffffffffffffffffff167f8be0079c531659141344cd1fd0a4f28419497f9722a3daafe3b4186f6b6457e060405160405180910390a35050565b828054620001dc906200027e565b90600052602060002090601f0160209004810192826200020057600085556200024c565b82601f106200021b57805160ff19168380011785556200024c565b828001600101855582156200024c579182015b828111156200024b5782518255916020019190600101906200022e565b5b5090506200025b91906200025f565b5090565b5b808211156200027a57600081600090555060010162000260565b5090565b600060028204905060018216806200029757607f821691505b60208210811415620002ae57620002ad620002b4565b5b50919050565b7f4e487b7100000000000000000000000000000000000000000000000000000000600052602260045260246000fd5b61356e80620002f36000396000f3fe6080604052600436106101355760003560e01c806370a08231116100ab578063a0712d681161006f578063a0712d6814610402578063a22cb4651461041e578063b88d4fde14610447578063c87b56dd14610470578063e985e9c5146104ad578063f2fde38b146104ea57610135565b806370a082311461032d578063715018a61461036a578063833b9499146103815780638da5cb5b146103ac57806395d89b41146103d757610135565b806323b872dd116100fd57806323b872dd1461023357806332cb6b0c1461025c5780633ccfd60b1461028757806342842e0e1461029e57806355f804b3146102c75780636352211e146102f057610135565b806301ffc9a71461013a57806306fdde0314610177578063081812fc146101a2578063095ea7b3146101df57806318160ddd14610208575b600080fd5b34801561014657600080fd5b50610161600480360381019061015c919061246e565b610513565b60405161016e9190612de1565b60405180910390f35b34801561018357600080fd5b5061018c6105f5565b6040516101999190612dfc565b60405180910390f35b3480156101ae57600080fd5b506101c960048036038101906101c49190612501565b610687565b6040516101d69190612d7a565b60405180910390f35b3480156101eb57600080fd5b5061020660048036038101906102019190612432565b61070c565b005b34801561021457600080fd5b5061021d610824565b60405161022a919061309e565b60405180910390f35b34801561023f57600080fd5b5061025a6004803603810190610255919061232c565b610835565b005b34801561026857600080fd5b50610271610895565b60405161027e919061309e565b60405180910390f35b34801561029357600080fd5b5061029c61089b565b005b3480156102aa57600080fd5b506102c560048036038101906102c0919061232c565b610929565b005b3480156102d357600080fd5b506102ee60048036038101906102e991906124c0565b610949565b005b3480156102fc57600080fd5b5061031760048036038101906103129190612501565b610a2d565b6040516103249190612d7a565b60405180910390f35b34801561033957600080fd5b50610354600480360381019061034f91906122c7565b610adf565b604051610361919061309e565b60405180910390f35b34801561037657600080fd5b5061037f610b97565b005b34801561038d57600080fd5b50610396610c1f565b6040516103a3919061309e565b60405180910390f35b3480156103b857600080fd5b506103c1610c2b565b6040516103ce9190612d7a565b60405180910390f35b3480156103e357600080fd5b506103ec610c55565b6040516103f99190612dfc565b60405180910390f35b61041c60048036038101906104179190612501565b610ce7565b005b34801561042a57600080fd5b50610445600480360381019061044091906123f6565b610e88565b005b34801561045357600080fd5b5061046e6004803603810190610469919061237b565b610e9e565b005b34801561047c57600080fd5b5061049760048036038101906104929190612501565b610f00565b6040516104a49190612dfc565b60405180910390f35b3480156104b957600080fd5b506104d460048036038101906104cf91906122f0565b611052565b6040516104e19190612de1565b60405180910390f35b3480156104f657600080fd5b50610511600480360381019061050c91906122c7565b6110e6565b005b60007f80ac58cd000000000000000000000000000000000000000000000000000000007bffffffffffffffffffffffffffffffffffffffffffffffffffffffff1916827bffffffffffffffffffffffffffffffffffffffffffffffffffffffff191614806105de57507f5b5e139f000000000000000000000000000000000000000000000000000000007bffffffffffffffffffffffffffffffffffffffffffffffffffffffff1916827bffffffffffffffffffffffffffffffffffffffffffffffffffffffff1916145b806105ee57506105ed826111de565b5b9050919050565b60606000805461060490613363565b80601f016020809104026020016040519081016040528092919081815260200182805461063090613363565b801561067d5780601f106106525761010080835404028352916020019161067d565b820191906000526020600020905b81548152906001019060200180831161066057829003601f168201915b5050505050905090565b600061069282611248565b6106d1576040517f08c379a00000000000000000000000000000000000000000000000000000000081526004016106c890612f9e565b60405180910390fd5b6004600083815260200190815260200160002060009054906101000a900473ffffffffffffffffffffffffffffffffffffffff169050919050565b600061071782610a2d565b90508073ffffffffffffffffffffffffffffffffffffffff168373ffffffffffffffffffffffffffffffffffffffff161415610788576040517f08c379a000000000000000000000000000000000000000000000000000000000815260040161077f9061301e565b60405180910390fd5b8073ffffffffffffffffffffffffffffffffffffffff166107a76112b4565b73ffffffffffffffffffffffffffffffffffffffff1614806107d657506107d5816107d06112b4565b611052565b5b610815576040517f08c379a000000000000000000000000000000000000000000000000000000000815260040161080c90612ede565b60405180910390fd5b61081f83836112bc565b505050565b60006108306008611375565b905090565b6108466108406112b4565b82611383565b610885576040517f08c379a000000000000000000000000000000000000000000000000000000000815260040161087c9061305e565b60405180910390fd5b610890838383611461565b505050565b61271081565b6108a36112b4565b73ffffffffffffffffffffffffffffffffffffffff166108c1610c2b565b73ffffffffffffffffffffffffffffffffffffffff1614610917576040517f08c379a000000000000000000000000000000000000000000000000000000000815260040161090e90612fbe565b60405180910390fd5b600047905061092633826116bd565b50565b61094483838360405180602001604052806000815250610e9e565b505050565b6109516112b4565b73ffffffffffffffffffffffffffffffffffffffff1661096f610c2b565b73ffffffffffffffffffffffffffffffffffffffff16146109c5576040517f08c379a00000000000000000000000000000000000000000000000000000000081526004016109bc90612fbe565b60405180910390fd5b80600990805190602001906109db9291906120eb565b503373ffffffffffffffffffffffffffffffffffffffff167fcbf0e61971a295007f78ae449e053f895369bf5e8702aa6a50a68adae263623882604051610a229190612dfc565b60405180910390a250565b6000806002600084815260200190815260200160002060009054906101000a900473ffffffffffffffffffffffffffffffffffffffff169050600073ffffffffffffffffffffffffffffffffffffffff168173ffffffffffffffffffffffffffffffffffffffff161415610ad6576040517f08c379a0000000000000000000000000000000000000000000000000000000008152600401610acd90612f1e565b60405180910390fd5b80915050919050565b60008073ffffffffffffffffffffffffffffffffffffffff168273ffffffffffffffffffffffffffffffffffffffff161415610b50576040517f08c379a0000000000000000000000000000000000000000000000000000000008152600401610b4790612efe565b60405180910390fd5b600360008373ffffffffffffffffffffffffffffffffffffffff1673ffffffffffffffffffffffffffffffffffffffff168152602001908152602001600020549050919050565b610b9f6112b4565b73ffffffffffffffffffffffffffffffffffffffff16610bbd610c2b565b73ffffffffffffffffffffffffffffffffffffffff1614610c13576040517f08c379a0000000000000000000000000000000000000000000000000000000008152600401610c0a90612fbe565b60405180910390fd5b610c1d60006117e3565b565b67016345785d8a000081565b6000600760009054906101000a900473ffffffffffffffffffffffffffffffffffffffff16905090565b606060018054610c6490613363565b80601f0160208091040260200160405190810160405280929190818152602001828054610c9090613363565b8015610cdd5780601f10610cb257610100808354040283529160200191610cdd565b820191906000526020600020905b815481529060010190602001808311610cc057829003601f168201915b5050505050905090565b600067016345785d8a000082610cfd919061321f565b905080341015610d42576040517f08c379a0000000000000000000000000000000000000000000000000000000008152600401610d399061307e565b60405180910390fd5b600082905060005b81811015610e1a57610d5c60086118a9565b612710610d696008611375565b1115610daa576040517f08c379a0000000000000000000000000000000000000000000000000000000008152600401610da190612f3e565b60405180910390fd5b6000610db66008611375565b9050610dc233826118bf565b803373ffffffffffffffffffffffffffffffffffffffff167f9f494565851dbcb31fb5198ca217cda6833282fadb96ba9431bd19c82afc1dd360405160405180910390a3508080610e1290613395565b915050610d4a565b5060008234610e299190613279565b905060008114610e8257610e3d33826116bd565b803373ffffffffffffffffffffffffffffffffffffffff167fb6c0eca8138e097d71e2dd31e19a1266487f0553f170b7260ffe68bcbe9ff8a760405160405180910390a35b50505050565b610e9a610e936112b4565b8383611a8d565b5050565b610eaf610ea96112b4565b83611383565b610eee576040517f08c379a0000000000000000000000000000000000000000000000000000000008152600401610ee59061305e565b60405180910390fd5b610efa84848484611bfa565b50505050565b6060610f0b82611248565b610f4a576040517f08c379a0000000000000000000000000000000000000000000000000000000008152600401610f4190612f7e565b60405180910390fd5b6000600660008481526020019081526020016000208054610f6a90613363565b80601f0160208091040260200160405190810160405280929190818152602001828054610f9690613363565b8015610fe35780601f10610fb857610100808354040283529160200191610fe3565b820191906000526020600020905b815481529060010190602001808311610fc657829003601f168201915b505050505090506000610ff4611c56565b905060008151141561100a57819250505061104d565b60008251111561103f578082604051602001611027929190612d56565b6040516020818303038152906040529250505061104d565b61104884611ce8565b925050505b919050565b6000600560008473ffffffffffffffffffffffffffffffffffffffff1673ffffffffffffffffffffffffffffffffffffffff16815260200190815260200160002060008373ffffffffffffffffffffffffffffffffffffffff1673ffffffffffffffffffffffffffffffffffffffff16815260200190815260200160002060009054906101000a900460ff16905092915050565b6110ee6112b4565b73ffffffffffffffffffffffffffffffffffffffff1661110c610c2b565b73ffffffffffffffffffffffffffffffffffffffff1614611162576040517f08c379a000000000000000000000000000000000000000000000000000000000815260040161115990612fbe565b60405180910390fd5b600073ffffffffffffffffffffffffffffffffffffffff168173ffffffffffffffffffffffffffffffffffffffff1614156111d2576040517f08c379a00000000000000000000000000000000000000000000000000000000081526004016111c990612e3e565b60405180910390fd5b6111db816117e3565b50565b60007f01ffc9a7000000000000000000000000000000000000000000000000000000007bffffffffffffffffffffffffffffffffffffffffffffffffffffffff1916827bffffffffffffffffffffffffffffffffffffffffffffffffffffffff1916149050919050565b60008073ffffffffffffffffffffffffffffffffffffffff166002600084815260200190815260200160002060009054906101000a900473ffffffffffffffffffffffffffffffffffffffff1673ffffffffffffffffffffffffffffffffffffffff1614159050919050565b600033905090565b816004600083815260200190815260200160002060006101000a81548173ffffffffffffffffffffffffffffffffffffffff021916908373ffffffffffffffffffffffffffffffffffffffff160217905550808273ffffffffffffffffffffffffffffffffffffffff1661132f83610a2d565b73ffffffffffffffffffffffffffffffffffffffff167f8c5be1e5ebec7d5bd14f71427d1e84f3dd0314c0f7b2291e5b200ac8c7c3b92560405160405180910390a45050565b600081600001549050919050565b600061138e82611248565b6113cd576040517f08c379a00000000000000000000000000000000000000000000000000000000081526004016113c490612ebe565b60405180910390fd5b60006113d883610a2d565b90508073ffffffffffffffffffffffffffffffffffffffff168473ffffffffffffffffffffffffffffffffffffffff16148061144757508373ffffffffffffffffffffffffffffffffffffffff1661142f84610687565b73ffffffffffffffffffffffffffffffffffffffff16145b8061145857506114578185611052565b5b91505092915050565b8273ffffffffffffffffffffffffffffffffffffffff1661148182610a2d565b73ffffffffffffffffffffffffffffffffffffffff16146114d7576040517f08c379a00000000000000000000000000000000000000000000000000000000081526004016114ce90612fde565b60405180910390fd5b600073ffffffffffffffffffffffffffffffffffffffff168273ffffffffffffffffffffffffffffffffffffffff161415611547576040517f08c379a000000000000000000000000000000000000000000000000000000000815260040161153e90612e7e565b60405180910390fd5b611552838383611d8f565b61155d6000826112bc565b6001600360008573ffffffffffffffffffffffffffffffffffffffff1673ffffffffffffffffffffffffffffffffffffffff16815260200190815260200160002060008282546115ad9190613279565b925050819055506001600360008473ffffffffffffffffffffffffffffffffffffffff1673ffffffffffffffffffffffffffffffffffffffff16815260200190815260200160002060008282546116049190613198565b92505081905550816002600083815260200190815260200160002060006101000a81548173ffffffffffffffffffffffffffffffffffffffff021916908373ffffffffffffffffffffffffffffffffffffffff160217905550808273ffffffffffffffffffffffffffffffffffffffff168473ffffffffffffffffffffffffffffffffffffffff167fddf252ad1be2c89b69c2b068fc378daa952ba7f163c4a11628f55a4df523b3ef60405160405180910390a4505050565b60008273ffffffffffffffffffffffffffffffffffffffff1682600067ffffffffffffffff811115611718577f4e487b7100000000000000000000000000000000000000000000000000000000600052604160045260246000fd5b6040519080825280601f01601f19166020018201604052801561174a5781602001600182028036833780820191505090505b506040516117589190612d3f565b60006040518083038185875af1925050503d8060008114611795576040519150601f19603f3d011682016040523d82523d6000602084013e61179a565b606091505b50509050806117de576040517f08c379a00000000000000000000000000000000000000000000000000000000081526004016117d59061303e565b60405180910390fd5b505050565b6000600760009054906101000a900473ffffffffffffffffffffffffffffffffffffffff16905081600760006101000a81548173ffffffffffffffffffffffffffffffffffffffff021916908373ffffffffffffffffffffffffffffffffffffffff1602179055508173ffffffffffffffffffffffffffffffffffffffff168173ffffffffffffffffffffffffffffffffffffffff167f8be0079c531659141344cd1fd0a4f28419497f9722a3daafe3b4186f6b6457e060405160405180910390a35050565b6001816000016000828254019250508190555050565b600073ffffffffffffffffffffffffffffffffffffffff168273ffffffffffffffffffffffffffffffffffffffff16141561192f576040517f08c379a000000000000000000000000000000000000000000000000000000000815260040161192690612f5e565b60405180910390fd5b61193881611248565b15611978576040517f08c379a000000000000000000000000000000000000000000000000000000000815260040161196f90612e5e565b60405180910390fd5b61198460008383611d8f565b6001600360008473ffffffffffffffffffffffffffffffffffffffff1673ffffffffffffffffffffffffffffffffffffffff16815260200190815260200160002060008282546119d49190613198565b92505081905550816002600083815260200190815260200160002060006101000a81548173ffffffffffffffffffffffffffffffffffffffff021916908373ffffffffffffffffffffffffffffffffffffffff160217905550808273ffffffffffffffffffffffffffffffffffffffff16600073ffffffffffffffffffffffffffffffffffffffff167fddf252ad1be2c89b69c2b068fc378daa952ba7f163c4a11628f55a4df523b3ef60405160405180910390a45050565b8173ffffffffffffffffffffffffffffffffffffffff168373ffffffffffffffffffffffffffffffffffffffff161415611afc576040517f08c379a0000000000000000000000000000000000000000000000000000000008152600401611af390612e9e565b60405180910390fd5b80600560008573ffffffffffffffffffffffffffffffffffffffff1673ffffffffffffffffffffffffffffffffffffffff16815260200190815260200160002060008473ffffffffffffffffffffffffffffffffffffffff1673ffffffffffffffffffffffffffffffffffffffff16815260200190815260200160002060006101000a81548160ff0219169083151502179055508173ffffffffffffffffffffffffffffffffffffffff168373ffffffffffffffffffffffffffffffffffffffff167f17307eab39ab6107e8899845ad3d59bd9653f200f220920489ca2b5937696c3183604051611bed9190612de1565b60405180910390a3505050565b611c05848484611461565b611c1184848484611d94565b611c50576040517f08c379a0000000000000000000000000000000000000000000000000000000008152600401611c4790612e1e565b60405180910390fd5b50505050565b606060098054611c6590613363565b80601f0160208091040260200160405190810160405280929190818152602001828054611c9190613363565b8015611cde5780601f10611cb357610100808354040283529160200191611cde565b820191906000526020600020905b815481529060010190602001808311611cc157829003601f168201915b5050505050905090565b6060611cf382611248565b611d32576040517f08c379a0000000000000000000000000000000000000000000000000000000008152600401611d2990612ffe565b60405180910390fd5b6000611d3c611c56565b90506000815111611d5c5760405180602001604052806000815250611d87565b80611d6684611f2b565b604051602001611d77929190612d56565b6040516020818303038152906040525b915050919050565b505050565b6000611db58473ffffffffffffffffffffffffffffffffffffffff166120d8565b15611f1e578373ffffffffffffffffffffffffffffffffffffffff1663150b7a02611dde6112b4565b8786866040518563ffffffff1660e01b8152600401611e009493929190612d95565b602060405180830381600087803b158015611e1a57600080fd5b505af1925050508015611e4b57506040513d601f19601f82011682018060405250810190611e489190612497565b60015b611ece573d8060008114611e7b576040519150601f19603f3d011682016040523d82523d6000602084013e611e80565b606091505b50600081511415611ec6576040517f08c379a0000000000000000000000000000000000000000000000000000000008152600401611ebd90612e1e565b60405180910390fd5b805181602001fd5b63150b7a0260e01b7bffffffffffffffffffffffffffffffffffffffffffffffffffffffff1916817bffffffffffffffffffffffffffffffffffffffffffffffffffffffff191614915050611f23565b600190505b949350505050565b60606000821415611f73576040518060400160405280600181526020017f300000000000000000000000000000000000000000000000000000000000000081525090506120d3565b600082905060005b60008214611fa5578080611f8e90613395565b915050600a82611f9e91906131ee565b9150611f7b565b60008167ffffffffffffffff811115611fe7577f4e487b7100000000000000000000000000000000000000000000000000000000600052604160045260246000fd5b6040519080825280601f01601f1916602001820160405280156120195781602001600182028036833780820191505090505b5090505b600085146120cc576001826120329190613279565b9150600a8561204191906133de565b603061204d9190613198565b60f81b818381518110612089577f4e487b7100000000000000000000000000000000000000000000000000000000600052603260045260246000fd5b60200101907effffffffffffffffffffffffffffffffffffffffffffffffffffffffffffff1916908160001a905350600a856120c591906131ee565b945061201d565b8093505050505b919050565b600080823b905060008111915050919050565b8280546120f790613363565b90600052602060002090601f0160209004810192826121195760008555612160565b82601f1061213257805160ff1916838001178555612160565b82800160010185558215612160579182015b8281111561215f578251825591602001919060010190612144565b5b50905061216d9190612171565b5090565b5b8082111561218a576000816000905550600101612172565b5090565b60006121a161219c846130ea565b6130b9565b9050828152602081018484840111156121b957600080fd5b6121c4848285613321565b509392505050565b60006121df6121da8461311a565b6130b9565b9050828152602081018484840111156121f757600080fd5b612202848285613321565b509392505050565b600081359050612219816134dc565b92915050565b60008135905061222e816134f3565b92915050565b6000813590506122438161350a565b92915050565b6000815190506122588161350a565b92915050565b600082601f83011261226f57600080fd5b813561227f84826020860161218e565b91505092915050565b600082601f83011261229957600080fd5b81356122a98482602086016121cc565b91505092915050565b6000813590506122c181613521565b92915050565b6000602082840312156122d957600080fd5b60006122e78482850161220a565b91505092915050565b6000806040838503121561230357600080fd5b60006123118582860161220a565b92505060206123228582860161220a565b9150509250929050565b60008060006060848603121561234157600080fd5b600061234f8682870161220a565b93505060206123608682870161220a565b9250506040612371868287016122b2565b9150509250925092565b6000806000806080858703121561239157600080fd5b600061239f8782880161220a565b94505060206123b08782880161220a565b93505060406123c1878288016122b2565b925050606085013567ffffffffffffffff8111156123de57600080fd5b6123ea8782880161225e565b91505092959194509250565b6000806040838503121561240957600080fd5b60006124178582860161220a565b92505060206124288582860161221f565b9150509250929050565b6000806040838503121561244557600080fd5b60006124538582860161220a565b9250506020612464858286016122b2565b9150509250929050565b60006020828403121561248057600080fd5b600061248e84828501612234565b91505092915050565b6000602082840312156124a957600080fd5b60006124b784828501612249565b91505092915050565b6000602082840312156124d257600080fd5b600082013567ffffffffffffffff8111156124ec57600080fd5b6124f884828501612288565b91505092915050565b60006020828403121561251357600080fd5b6000612521848285016122b2565b91505092915050565b612533816132ad565b82525050565b612542816132bf565b82525050565b60006125538261314a565b61255d8185613160565b935061256d818560208601613330565b612576816134cb565b840191505092915050565b600061258c8261314a565b6125968185613171565b93506125a6818560208601613330565b80840191505092915050565b60006125bd82613155565b6125c7818561317c565b93506125d7818560208601613330565b6125e0816134cb565b840191505092915050565b60006125f682613155565b612600818561318d565b9350612610818560208601613330565b80840191505092915050565b600061262960328361317c565b91507f4552433732313a207472616e7366657220746f206e6f6e20455243373231526560008301527f63656976657220696d706c656d656e74657200000000000000000000000000006020830152604082019050919050565b600061268f60268361317c565b91507f4f776e61626c653a206e6577206f776e657220697320746865207a65726f206160008301527f64647265737300000000000000000000000000000000000000000000000000006020830152604082019050919050565b60006126f5601c8361317c565b91507f4552433732313a20746f6b656e20616c7265616479206d696e746564000000006000830152602082019050919050565b600061273560248361317c565b91507f4552433732313a207472616e7366657220746f20746865207a65726f2061646460008301527f72657373000000000000000000000000000000000000000000000000000000006020830152604082019050919050565b600061279b60198361317c565b91507f4552433732313a20617070726f766520746f2063616c6c6572000000000000006000830152602082019050919050565b60006127db602c8361317c565b91507f4552433732313a206f70657261746f7220717565727920666f72206e6f6e657860008301527f697374656e7420746f6b656e00000000000000000000000000000000000000006020830152604082019050919050565b600061284160388361317c565b91507f4552433732313a20617070726f76652063616c6c6572206973206e6f74206f7760008301527f6e6572206e6f7220617070726f76656420666f7220616c6c00000000000000006020830152604082019050919050565b60006128a7602a8361317c565b91507f4552433732313a2062616c616e636520717565727920666f7220746865207a6560008301527f726f2061646472657373000000000000000000000000000000000000000000006020830152604082019050919050565b600061290d60298361317c565b91507f4552433732313a206f776e657220717565727920666f72206e6f6e657869737460008301527f656e7420746f6b656e00000000000000000000000000000000000000000000006020830152604082019050919050565b600061297360208361317c565b91507f507572636861736520776f756c6420657863656564206d617820737570706c796000830152602082019050919050565b60006129b360208361317c565b91507f4552433732313a206d696e7420746f20746865207a65726f20616464726573736000830152602082019050919050565b60006129f360318361317c565b91507f45524337323155524953746f726167653a2055524920717565727920666f722060008301527f6e6f6e6578697374656e7420746f6b656e0000000000000000000000000000006020830152604082019050919050565b6000612a59602c8361317c565b91507f4552433732313a20617070726f76656420717565727920666f72206e6f6e657860008301527f697374656e7420746f6b656e00000000000000000000000000000000000000006020830152604082019050919050565b6000612abf60208361317c565b91507f4f776e61626c653a2063616c6c6572206973206e6f7420746865206f776e65726000830152602082019050919050565b6000612aff60298361317c565b91507f4552433732313a207472616e73666572206f6620746f6b656e2074686174206960008301527f73206e6f74206f776e00000000000000000000000000000000000000000000006020830152604082019050919050565b6000612b65602f8361317c565b91507f4552433732314d657461646174613a2055524920717565727920666f72206e6f60008301527f6e6578697374656e7420746f6b656e00000000000000000000000000000000006020830152604082019050919050565b6000612bcb60218361317c565b91507f4552433732313a20617070726f76616c20746f2063757272656e74206f776e6560008301527f72000000000000000000000000000000000000000000000000000000000000006020830152604082019050919050565b6000612c3160108361317c565b91507f21736166655472616e73666572455448000000000000000000000000000000006000830152602082019050919050565b6000612c7160318361317c565b91507f4552433732313a207472616e736665722063616c6c6572206973206e6f74206f60008301527f776e6572206e6f7220617070726f7665640000000000000000000000000000006020830152604082019050919050565b6000612cd760218361317c565b91507f4e6f7420656e6f756768204554482073656e743b20636865636b20707269636560008301527f21000000000000000000000000000000000000000000000000000000000000006020830152604082019050919050565b612d3981613317565b82525050565b6000612d4b8284612581565b915081905092915050565b6000612d6282856125eb565b9150612d6e82846125eb565b91508190509392505050565b6000602082019050612d8f600083018461252a565b92915050565b6000608082019050612daa600083018761252a565b612db7602083018661252a565b612dc46040830185612d30565b8181036060830152612dd68184612548565b905095945050505050565b6000602082019050612df66000830184612539565b92915050565b60006020820190508181036000830152612e1681846125b2565b905092915050565b60006020820190508181036000830152612e378161261c565b9050919050565b60006020820190508181036000830152612e5781612682565b9050919050565b60006020820190508181036000830152612e77816126e8565b9050919050565b60006020820190508181036000830152612e9781612728565b9050919050565b60006020820190508181036000830152612eb78161278e565b9050919050565b60006020820190508181036000830152612ed7816127ce565b9050919050565b60006020820190508181036000830152612ef781612834565b9050919050565b60006020820190508181036000830152612f178161289a565b9050919050565b60006020820190508181036000830152612f3781612900565b9050919050565b60006020820190508181036000830152612f5781612966565b9050919050565b60006020820190508181036000830152612f77816129a6565b9050919050565b60006020820190508181036000830152612f97816129e6565b9050919050565b60006020820190508181036000830152612fb781612a4c565b9050919050565b60006020820190508181036000830152612fd781612ab2565b9050919050565b60006020820190508181036000830152612ff781612af2565b9050919050565b6000602082019050818103600083015261301781612b58565b9050919050565b6000602082019050818103600083015261303781612bbe565b9050919050565b6000602082019050818103600083015261305781612c24565b9050919050565b6000602082019050818103600083015261307781612c64565b9050919050565b6000602082019050818103600083015261309781612cca565b9050919050565b60006020820190506130b36000830184612d30565b92915050565b6000604051905081810181811067ffffffffffffffff821117156130e0576130df61349c565b5b8060405250919050565b600067ffffffffffffffff8211156131055761310461349c565b5b601f19601f8301169050602081019050919050565b600067ffffffffffffffff8211156131355761313461349c565b5b601f19601f8301169050602081019050919050565b600081519050919050565b600081519050919050565b600082825260208201905092915050565b600081905092915050565b600082825260208201905092915050565b600081905092915050565b60006131a382613317565b91506131ae83613317565b9250827fffffffffffffffffffffffffffffffffffffffffffffffffffffffffffffffff038211156131e3576131e261340f565b5b828201905092915050565b60006131f982613317565b915061320483613317565b9250826132145761321361343e565b5b828204905092915050565b600061322a82613317565b915061323583613317565b9250817fffffffffffffffffffffffffffffffffffffffffffffffffffffffffffffffff048311821515161561326e5761326d61340f565b5b828202905092915050565b600061328482613317565b915061328f83613317565b9250828210156132a2576132a161340f565b5b828203905092915050565b60006132b8826132f7565b9050919050565b60008115159050919050565b60007fffffffff0000000000000000000000000000000000000000000000000000000082169050919050565b600073ffffffffffffffffffffffffffffffffffffffff82169050919050565b6000819050919050565b82818337600083830152505050565b60005b8381101561334e578082015181840152602081019050613333565b8381111561335d576000848401525b50505050565b6000600282049050600182168061337b57607f821691505b6020821081141561338f5761338e61346d565b5b50919050565b60006133a082613317565b91507fffffffffffffffffffffffffffffffffffffffffffffffffffffffffffffffff8214156133d3576133d261340f565b5b600182019050919050565b60006133e982613317565b91506133f483613317565b9250826134045761340361343e565b5b828206905092915050565b7f4e487b7100000000000000000000000000000000000000000000000000000000600052601160045260246000fd5b7f4e487b7100000000000000000000000000000000000000000000000000000000600052601260045260246000fd5b7f4e487b7100000000000000000000000000000000000000000000000000000000600052602260045260246000fd5b7f4e487b7100000000000000000000000000000000000000000000000000000000600052604160045260246000fd5b6000601f19601f8301169050919050565b6134e5816132ad565b81146134f057600080fd5b50565b6134fc816132bf565b811461350757600080fd5b50565b613513816132cb565b811461351e57600080fd5b50565b61352a81613317565b811461353557600080fd5b5056fea2646970667358221220cb11ef238a3720451da6adf7c44a179954f9d7ed10262f33d6e90ccaa4439a5064736f6c63430008000033",
  "linkReferences": {},
  "deployedLinkReferences": {}
}