{
    "_format": "hh-sol-artifact-1",
    "contractName": "MyNFT",
    "sourceName": "contracts/my-nft.sol",
    "abi": [
        {
            "inputs": [],
            "stateMutability": "nonpayable",
            "type": "constructor"
        },
        {
            "anonymous": false,
            "inputs": [
                {
                    "indexed": true,
                    "internalType": "address",
                    "name": "owner",
                    "type": "address"
                },
                {
                    "indexed": true,
                    "internalType": "address",
                    "name": "approved",
                    "type": "address"
                },
                {
                    "indexed": true,
                    "internalType": "uint256",
                    "name": "tokenId",
                    "type": "uint256"
                }
            ],
            "name": "Approval",
            "type": "event"
        },
        {
            "anonymous": false,
            "inputs": [
                {
                    "indexed": true,
                    "internalType": "address",
                    "name": "owner",
                    "type": "address"
                },
                {
                    "indexed": true,
                    "internalType": "address",
                    "name": "operator",
                    "type": "address"
                },
                {
                    "indexed": false,
                    "internalType": "bool",
                    "name": "approved",
                    "type": "bool"
                }
            ],
            "name": "ApprovalForAll",
            "type": "event"
        },
        {
            "anonymous": false,
            "inputs": [
                {
                    "indexed": true,
                    "internalType": "address",
                    "name": "previousOwner",
                    "type": "address"
                },
                {
                    "indexed": true,
                    "internalType": "address",
                    "name": "newOwner",
                    "type": "address"
                }
            ],
            "name": "OwnershipTransferred",
            "type": "event"
        },
        {
            "anonymous": false,
            "inputs": [
                {
                    "indexed": true,
                    "internalType": "address",
                    "name": "from",
                    "type": "address"
                },
                {
                    "indexed": true,
                    "internalType": "address",
                    "name": "to",
                    "type": "address"
                },
                {
                    "indexed": true,
                    "internalType": "uint256",
                    "name": "tokenId",
                    "type": "uint256"
                }
            ],
            "name": "Transfer",
            "type": "event"
        },
        {
            "inputs": [],
            "name": "MAX_SUPPLY",
            "outputs": [
                {
                    "internalType": "uint256",
                    "name": "",
                    "type": "uint256"
                }
            ],
            "stateMutability": "view",
            "type": "function"
        },
        {
            "inputs": [],
            "name": "PRICE_PER_TOKEN",
            "outputs": [
                {
                    "internalType": "uint256",
                    "name": "",
                    "type": "uint256"
                }
            ],
            "stateMutability": "view",
            "type": "function"
        },
        {
            "inputs": [
                {
                    "internalType": "address",
                    "name": "to",
                    "type": "address"
                },
                {
                    "internalType": "uint256",
                    "name": "tokenId",
                    "type": "uint256"
                }
            ],
            "name": "approve",
            "outputs": [],
            "stateMutability": "nonpayable",
            "type": "function"
        },
        {
            "inputs": [
                {
                    "internalType": "address",
                    "name": "owner",
                    "type": "address"
                }
            ],
            "name": "balanceOf",
            "outputs": [
                {
                    "internalType": "uint256",
                    "name": "",
                    "type": "uint256"
                }
            ],
            "stateMutability": "view",
            "type": "function"
        },
        {
            "inputs": [
                {
                    "internalType": "uint256",
                    "name": "tokenId",
                    "type": "uint256"
                }
            ],
            "name": "getApproved",
            "outputs": [
                {
                    "internalType": "address",
                    "name": "",
                    "type": "address"
                }
            ],
            "stateMutability": "view",
            "type": "function"
        },
        {
            "inputs": [
                {
                    "internalType": "address",
                    "name": "owner",
                    "type": "address"
                },
                {
                    "internalType": "address",
                    "name": "operator",
                    "type": "address"
                }
            ],
            "name": "isApprovedForAll",
            "outputs": [
                {
                    "internalType": "bool",
                    "name": "",
                    "type": "bool"
                }
            ],
            "stateMutability": "view",
            "type": "function"
        },
        {
            "inputs": [
                {
                    "internalType": "uint256",
                    "name": "_amount",
                    "type": "uint256"
                }
            ],
            "name": "mint",
            "outputs": [],
            "stateMutability": "payable",
            "type": "function"
        },
        {
            "inputs": [],
            "name": "name",
            "outputs": [
                {
                    "internalType": "string",
                    "name": "",
                    "type": "string"
                }
            ],
            "stateMutability": "view",
            "type": "function"
        },
        {
            "inputs": [],
            "name": "owner",
            "outputs": [
                {
                    "internalType": "address",
                    "name": "",
                    "type": "address"
                }
            ],
            "stateMutability": "view",
            "type": "function"
        },
        {
            "inputs": [
                {
                    "internalType": "uint256",
                    "name": "tokenId",
                    "type": "uint256"
                }
            ],
            "name": "ownerOf",
            "outputs": [
                {
                    "internalType": "address",
                    "name": "",
                    "type": "address"
                }
            ],
            "stateMutability": "view",
            "type": "function"
        },
        {
            "inputs": [],
            "name": "renounceOwnership",
            "outputs": [],
            "stateMutability": "nonpayable",
            "type": "function"
        },
        {
            "inputs": [
                {
                    "internalType": "address",
                    "name": "from",
                    "type": "address"
                },
                {
                    "internalType": "address",
                    "name": "to",
                    "type": "address"
                },
                {
                    "internalType": "uint256",
                    "name": "tokenId",
                    "type": "uint256"
                }
            ],
            "name": "safeTransferFrom",
            "outputs": [],
            "stateMutability": "nonpayable",
            "type": "function"
        },
        {
            "inputs": [
                {
                    "internalType": "address",
                    "name": "from",
                    "type": "address"
                },
                {
                    "internalType": "address",
                    "name": "to",
                    "type": "address"
                },
                {
                    "internalType": "uint256",
                    "name": "tokenId",
                    "type": "uint256"
                },
                {
                    "internalType": "bytes",
                    "name": "_data",
                    "type": "bytes"
                }
            ],
            "name": "safeTransferFrom",
            "outputs": [],
            "stateMutability": "nonpayable",
            "type": "function"
        },
        {
            "inputs": [
                {
                    "internalType": "address",
                    "name": "operator",
                    "type": "address"
                },
                {
                    "internalType": "bool",
                    "name": "approved",
                    "type": "bool"
                }
            ],
            "name": "setApprovalForAll",
            "outputs": [],
            "stateMutability": "nonpayable",
            "type": "function"
        },
        {
            "inputs": [
                {
                    "internalType": "string",
                    "name": "baseURI",
                    "type": "string"
                }
            ],
            "name": "setBaseURI",
            "outputs": [],
            "stateMutability": "nonpayable",
            "type": "function"
        },
        {
            "inputs": [
                {
                    "internalType": "bytes4",
                    "name": "interfaceId",
                    "type": "bytes4"
                }
            ],
            "name": "supportsInterface",
            "outputs": [
                {
                    "internalType": "bool",
                    "name": "",
                    "type": "bool"
                }
            ],
            "stateMutability": "view",
            "type": "function"
        },
        {
            "inputs": [],
            "name": "symbol",
            "outputs": [
                {
                    "internalType": "string",
                    "name": "",
                    "type": "string"
                }
            ],
            "stateMutability": "view",
            "type": "function"
        },
        {
            "inputs": [
                {
                    "internalType": "uint256",
                    "name": "tokenId",
                    "type": "uint256"
                }
            ],
            "name": "tokenURI",
            "outputs": [
                {
                    "internalType": "string",
                    "name": "",
                    "type": "string"
                }
            ],
            "stateMutability": "view",
            "type": "function"
        },
        {
            "inputs": [],
            "name": "totalSupply",
            "outputs": [
                {
                    "internalType": "uint256",
                    "name": "",
                    "type": "uint256"
                }
            ],
            "stateMutability": "view",
            "type": "function"
        },
        {
            "inputs": [
                {
                    "internalType": "address",
                    "name": "from",
                    "type": "address"
                },
                {
                    "internalType": "address",
                    "name": "to",
                    "type": "address"
                },
                {
                    "internalType": "uint256",
                    "name": "tokenId",
                    "type": "uint256"
                }
            ],
            "name": "transferFrom",
            "outputs": [],
            "stateMutability": "nonpayable",
            "type": "function"
        },
        {
            "inputs": [
                {
                    "internalType": "address",
                    "name": "newOwner",
                    "type": "address"
                }
            ],
            "name": "transferOwnership",
            "outputs": [],
            "stateMutability": "nonpayable",
            "type": "function"
        },
        {
            "inputs": [],
            "name": "withdraw",
            "outputs": [],
            "stateMutability": "nonpayable",
            "type": "function"
        }
    ],
    "bytecode": "0x608060405260405180602001604052806000815250600990805190602001906200002b929190620001ce565b503480156200003957600080fd5b506040518060400160405280600581526020017f4d794e46540000000000000000000000000000000000000000000000000000008152506040518060400160405280600381526020017f4e465400000000000000000000000000000000000000000000000000000000008152508160009080519060200190620000be929190620001ce565b508060019080519060200190620000d7929190620001ce565b505050620000fa620000ee6200010060201b60201c565b6200010860201b60201c565b620002e3565b600033905090565b6000600760009054906101000a900473ffffffffffffffffffffffffffffffffffffffff16905081600760006101000a81548173ffffffffffffffffffffffffffffffffffffffff021916908373ffffffffffffffffffffffffffffffffffffffff1602179055508173ffffffffffffffffffffffffffffffffffffffff168173ffffffffffffffffffffffffffffffffffffffff167f8be0079c531659141344cd1fd0a4f28419497f9722a3daafe3b4186f6b6457e060405160405180910390a35050565b828054620001dc906200027e565b90600052602060002090601f0160209004810192826200020057600085556200024c565b82601f106200021b57805160ff19168380011785556200024c565b828001600101855582156200024c579182015b828111156200024b5782518255916020019190600101906200022e565b5b5090506200025b91906200025f565b5090565b5b808211156200027a57600081600090555060010162000260565b5090565b600060028204905060018216806200029757607f821691505b60208210811415620002ae57620002ad620002b4565b5b50919050565b7f4e487b7100000000000000000000000000000000000000000000000000000000600052602260045260246000fd5b61349680620002f36000396000f3fe6080604052600436106101355760003560e01c806370a08231116100ab578063a0712d681161006f578063a0712d6814610402578063a22cb4651461041e578063b88d4fde14610447578063c87b56dd14610470578063e985e9c5146104ad578063f2fde38b146104ea57610135565b806370a082311461032d578063715018a61461036a578063833b9499146103815780638da5cb5b146103ac57806395d89b41146103d757610135565b806323b872dd116100fd57806323b872dd1461023357806332cb6b0c1461025c5780633ccfd60b1461028757806342842e0e1461029e57806355f804b3146102c75780636352211e146102f057610135565b806301ffc9a71461013a57806306fdde0314610177578063081812fc146101a2578063095ea7b3146101df57806318160ddd14610208575b600080fd5b34801561014657600080fd5b50610161600480360381019061015c9190612396565b610513565b60405161016e9190612d09565b60405180910390f35b34801561018357600080fd5b5061018c6105f5565b6040516101999190612d24565b60405180910390f35b3480156101ae57600080fd5b506101c960048036038101906101c49190612429565b610687565b6040516101d69190612ca2565b60405180910390f35b3480156101eb57600080fd5b506102066004803603810190610201919061235a565b61070c565b005b34801561021457600080fd5b5061021d610824565b60405161022a9190612fc6565b60405180910390f35b34801561023f57600080fd5b5061025a60048036038101906102559190612254565b610835565b005b34801561026857600080fd5b50610271610895565b60405161027e9190612fc6565b60405180910390f35b34801561029357600080fd5b5061029c61089a565b005b3480156102aa57600080fd5b506102c560048036038101906102c09190612254565b610928565b005b3480156102d357600080fd5b506102ee60048036038101906102e991906123e8565b610948565b005b3480156102fc57600080fd5b5061031760048036038101906103129190612429565b6109de565b6040516103249190612ca2565b60405180910390f35b34801561033957600080fd5b50610354600480360381019061034f91906121ef565b610a90565b6040516103619190612fc6565b60405180910390f35b34801561037657600080fd5b5061037f610b48565b005b34801561038d57600080fd5b50610396610bd0565b6040516103a39190612fc6565b60405180910390f35b3480156103b857600080fd5b506103c1610bdc565b6040516103ce9190612ca2565b60405180910390f35b3480156103e357600080fd5b506103ec610c06565b6040516103f99190612d24565b60405180910390f35b61041c60048036038101906104179190612429565b610c98565b005b34801561042a57600080fd5b506104456004803603810190610440919061231e565b610db0565b005b34801561045357600080fd5b5061046e600480360381019061046991906122a3565b610dc6565b005b34801561047c57600080fd5b5061049760048036038101906104929190612429565b610e28565b6040516104a49190612d24565b60405180910390f35b3480156104b957600080fd5b506104d460048036038101906104cf9190612218565b610f7a565b6040516104e19190612d09565b60405180910390f35b3480156104f657600080fd5b50610511600480360381019061050c91906121ef565b61100e565b005b60007f80ac58cd000000000000000000000000000000000000000000000000000000007bffffffffffffffffffffffffffffffffffffffffffffffffffffffff1916827bffffffffffffffffffffffffffffffffffffffffffffffffffffffff191614806105de57507f5b5e139f000000000000000000000000000000000000000000000000000000007bffffffffffffffffffffffffffffffffffffffffffffffffffffffff1916827bffffffffffffffffffffffffffffffffffffffffffffffffffffffff1916145b806105ee57506105ed82611106565b5b9050919050565b6060600080546106049061328b565b80601f01602080910402602001604051908101604052809291908181526020018280546106309061328b565b801561067d5780601f106106525761010080835404028352916020019161067d565b820191906000526020600020905b81548152906001019060200180831161066057829003601f168201915b5050505050905090565b600061069282611170565b6106d1576040517f08c379a00000000000000000000000000000000000000000000000000000000081526004016106c890612ec6565b60405180910390fd5b6004600083815260200190815260200160002060009054906101000a900473ffffffffffffffffffffffffffffffffffffffff169050919050565b6000610717826109de565b90508073ffffffffffffffffffffffffffffffffffffffff168373ffffffffffffffffffffffffffffffffffffffff161415610788576040517f08c379a000000000000000000000000000000000000000000000000000000000815260040161077f90612f46565b60405180910390fd5b8073ffffffffffffffffffffffffffffffffffffffff166107a76111dc565b73ffffffffffffffffffffffffffffffffffffffff1614806107d657506107d5816107d06111dc565b610f7a565b5b610815576040517f08c379a000000000000000000000000000000000000000000000000000000000815260040161080c90612e06565b60405180910390fd5b61081f83836111e4565b505050565b6000610830600861129d565b905090565b6108466108406111dc565b826112ab565b610885576040517f08c379a000000000000000000000000000000000000000000000000000000000815260040161087c90612f86565b60405180910390fd5b610890838383611389565b505050565b604d81565b6108a26111dc565b73ffffffffffffffffffffffffffffffffffffffff166108c0610bdc565b73ffffffffffffffffffffffffffffffffffffffff1614610916576040517f08c379a000000000000000000000000000000000000000000000000000000000815260040161090d90612ee6565b60405180910390fd5b600047905061092533826115e5565b50565b61094383838360405180602001604052806000815250610dc6565b505050565b6109506111dc565b73ffffffffffffffffffffffffffffffffffffffff1661096e610bdc565b73ffffffffffffffffffffffffffffffffffffffff16146109c4576040517f08c379a00000000000000000000000000000000000000000000000000000000081526004016109bb90612ee6565b60405180910390fd5b80600990805190602001906109da929190612013565b5050565b6000806002600084815260200190815260200160002060009054906101000a900473ffffffffffffffffffffffffffffffffffffffff169050600073ffffffffffffffffffffffffffffffffffffffff168173ffffffffffffffffffffffffffffffffffffffff161415610a87576040517f08c379a0000000000000000000000000000000000000000000000000000000008152600401610a7e90612e46565b60405180910390fd5b80915050919050565b60008073ffffffffffffffffffffffffffffffffffffffff168273ffffffffffffffffffffffffffffffffffffffff161415610b01576040517f08c379a0000000000000000000000000000000000000000000000000000000008152600401610af890612e26565b60405180910390fd5b600360008373ffffffffffffffffffffffffffffffffffffffff1673ffffffffffffffffffffffffffffffffffffffff168152602001908152602001600020549050919050565b610b506111dc565b73ffffffffffffffffffffffffffffffffffffffff16610b6e610bdc565b73ffffffffffffffffffffffffffffffffffffffff1614610bc4576040517f08c379a0000000000000000000000000000000000000000000000000000000008152600401610bbb90612ee6565b60405180910390fd5b610bce600061170b565b565b67016345785d8a000081565b6000600760009054906101000a900473ffffffffffffffffffffffffffffffffffffffff16905090565b606060018054610c159061328b565b80601f0160208091040260200160405190810160405280929190818152602001828054610c419061328b565b8015610c8e5780601f10610c6357610100808354040283529160200191610c8e565b820191906000526020600020905b815481529060010190602001808311610c7157829003601f168201915b5050505050905090565b600067016345785d8a000082610cae9190613147565b905080341015610cf3576040517f08c379a0000000000000000000000000000000000000000000000000000000008152600401610cea90612fa6565b60405180910390fd5b600082905060005b81811015610d8657610d0d60086117d1565b604d610d19600861129d565b1115610d5a576040517f08c379a0000000000000000000000000000000000000000000000000000000008152600401610d5190612e66565b60405180910390fd5b6000610d66600861129d565b9050610d7233826117e7565b508080610d7e906132bd565b915050610cfb565b5060008234610d9591906131a1565b905060008114610daa57610da933826115e5565b5b50505050565b610dc2610dbb6111dc565b83836119b5565b5050565b610dd7610dd16111dc565b836112ab565b610e16576040517f08c379a0000000000000000000000000000000000000000000000000000000008152600401610e0d90612f86565b60405180910390fd5b610e2284848484611b22565b50505050565b6060610e3382611170565b610e72576040517f08c379a0000000000000000000000000000000000000000000000000000000008152600401610e6990612ea6565b60405180910390fd5b6000600660008481526020019081526020016000208054610e929061328b565b80601f0160208091040260200160405190810160405280929190818152602001828054610ebe9061328b565b8015610f0b5780601f10610ee057610100808354040283529160200191610f0b565b820191906000526020600020905b815481529060010190602001808311610eee57829003601f168201915b505050505090506000610f1c611b7e565b9050600081511415610f32578192505050610f75565b600082511115610f67578082604051602001610f4f929190612c7e565b60405160208183030381529060405292505050610f75565b610f7084611c10565b925050505b919050565b6000600560008473ffffffffffffffffffffffffffffffffffffffff1673ffffffffffffffffffffffffffffffffffffffff16815260200190815260200160002060008373ffffffffffffffffffffffffffffffffffffffff1673ffffffffffffffffffffffffffffffffffffffff16815260200190815260200160002060009054906101000a900460ff16905092915050565b6110166111dc565b73ffffffffffffffffffffffffffffffffffffffff16611034610bdc565b73ffffffffffffffffffffffffffffffffffffffff161461108a576040517f08c379a000000000000000000000000000000000000000000000000000000000815260040161108190612ee6565b60405180910390fd5b600073ffffffffffffffffffffffffffffffffffffffff168173ffffffffffffffffffffffffffffffffffffffff1614156110fa576040517f08c379a00000000000000000000000000000000000000000000000000000000081526004016110f190612d66565b60405180910390fd5b6111038161170b565b50565b60007f01ffc9a7000000000000000000000000000000000000000000000000000000007bffffffffffffffffffffffffffffffffffffffffffffffffffffffff1916827bffffffffffffffffffffffffffffffffffffffffffffffffffffffff1916149050919050565b60008073ffffffffffffffffffffffffffffffffffffffff166002600084815260200190815260200160002060009054906101000a900473ffffffffffffffffffffffffffffffffffffffff1673ffffffffffffffffffffffffffffffffffffffff1614159050919050565b600033905090565b816004600083815260200190815260200160002060006101000a81548173ffffffffffffffffffffffffffffffffffffffff021916908373ffffffffffffffffffffffffffffffffffffffff160217905550808273ffffffffffffffffffffffffffffffffffffffff16611257836109de565b73ffffffffffffffffffffffffffffffffffffffff167f8c5be1e5ebec7d5bd14f71427d1e84f3dd0314c0f7b2291e5b200ac8c7c3b92560405160405180910390a45050565b600081600001549050919050565b60006112b682611170565b6112f5576040517f08c379a00000000000000000000000000000000000000000000000000000000081526004016112ec90612de6565b60405180910390fd5b6000611300836109de565b90508073ffffffffffffffffffffffffffffffffffffffff168473ffffffffffffffffffffffffffffffffffffffff16148061136f57508373ffffffffffffffffffffffffffffffffffffffff1661135784610687565b73ffffffffffffffffffffffffffffffffffffffff16145b80611380575061137f8185610f7a565b5b91505092915050565b8273ffffffffffffffffffffffffffffffffffffffff166113a9826109de565b73ffffffffffffffffffffffffffffffffffffffff16146113ff576040517f08c379a00000000000000000000000000000000000000000000000000000000081526004016113f690612f06565b60405180910390fd5b600073ffffffffffffffffffffffffffffffffffffffff168273ffffffffffffffffffffffffffffffffffffffff16141561146f576040517f08c379a000000000000000000000000000000000000000000000000000000000815260040161146690612da6565b60405180910390fd5b61147a838383611cb7565b6114856000826111e4565b6001600360008573ffffffffffffffffffffffffffffffffffffffff1673ffffffffffffffffffffffffffffffffffffffff16815260200190815260200160002060008282546114d591906131a1565b925050819055506001600360008473ffffffffffffffffffffffffffffffffffffffff1673ffffffffffffffffffffffffffffffffffffffff168152602001908152602001600020600082825461152c91906130c0565b92505081905550816002600083815260200190815260200160002060006101000a81548173ffffffffffffffffffffffffffffffffffffffff021916908373ffffffffffffffffffffffffffffffffffffffff160217905550808273ffffffffffffffffffffffffffffffffffffffff168473ffffffffffffffffffffffffffffffffffffffff167fddf252ad1be2c89b69c2b068fc378daa952ba7f163c4a11628f55a4df523b3ef60405160405180910390a4505050565b60008273ffffffffffffffffffffffffffffffffffffffff1682600067ffffffffffffffff811115611640577f4e487b7100000000000000000000000000000000000000000000000000000000600052604160045260246000fd5b6040519080825280601f01601f1916602001820160405280156116725781602001600182028036833780820191505090505b506040516116809190612c67565b60006040518083038185875af1925050503d80600081146116bd576040519150601f19603f3d011682016040523d82523d6000602084013e6116c2565b606091505b5050905080611706576040517f08c379a00000000000000000000000000000000000000000000000000000000081526004016116fd90612f66565b60405180910390fd5b505050565b6000600760009054906101000a900473ffffffffffffffffffffffffffffffffffffffff16905081600760006101000a81548173ffffffffffffffffffffffffffffffffffffffff021916908373ffffffffffffffffffffffffffffffffffffffff1602179055508173ffffffffffffffffffffffffffffffffffffffff168173ffffffffffffffffffffffffffffffffffffffff167f8be0079c531659141344cd1fd0a4f28419497f9722a3daafe3b4186f6b6457e060405160405180910390a35050565b6001816000016000828254019250508190555050565b600073ffffffffffffffffffffffffffffffffffffffff168273ffffffffffffffffffffffffffffffffffffffff161415611857576040517f08c379a000000000000000000000000000000000000000000000000000000000815260040161184e90612e86565b60405180910390fd5b61186081611170565b156118a0576040517f08c379a000000000000000000000000000000000000000000000000000000000815260040161189790612d86565b60405180910390fd5b6118ac60008383611cb7565b6001600360008473ffffffffffffffffffffffffffffffffffffffff1673ffffffffffffffffffffffffffffffffffffffff16815260200190815260200160002060008282546118fc91906130c0565b92505081905550816002600083815260200190815260200160002060006101000a81548173ffffffffffffffffffffffffffffffffffffffff021916908373ffffffffffffffffffffffffffffffffffffffff160217905550808273ffffffffffffffffffffffffffffffffffffffff16600073ffffffffffffffffffffffffffffffffffffffff167fddf252ad1be2c89b69c2b068fc378daa952ba7f163c4a11628f55a4df523b3ef60405160405180910390a45050565b8173ffffffffffffffffffffffffffffffffffffffff168373ffffffffffffffffffffffffffffffffffffffff161415611a24576040517f08c379a0000000000000000000000000000000000000000000000000000000008152600401611a1b90612dc6565b60405180910390fd5b80600560008573ffffffffffffffffffffffffffffffffffffffff1673ffffffffffffffffffffffffffffffffffffffff16815260200190815260200160002060008473ffffffffffffffffffffffffffffffffffffffff1673ffffffffffffffffffffffffffffffffffffffff16815260200190815260200160002060006101000a81548160ff0219169083151502179055508173ffffffffffffffffffffffffffffffffffffffff168373ffffffffffffffffffffffffffffffffffffffff167f17307eab39ab6107e8899845ad3d59bd9653f200f220920489ca2b5937696c3183604051611b159190612d09565b60405180910390a3505050565b611b2d848484611389565b611b3984848484611cbc565b611b78576040517f08c379a0000000000000000000000000000000000000000000000000000000008152600401611b6f90612d46565b60405180910390fd5b50505050565b606060098054611b8d9061328b565b80601f0160208091040260200160405190810160405280929190818152602001828054611bb99061328b565b8015611c065780601f10611bdb57610100808354040283529160200191611c06565b820191906000526020600020905b815481529060010190602001808311611be957829003601f168201915b5050505050905090565b6060611c1b82611170565b611c5a576040517f08c379a0000000000000000000000000000000000000000000000000000000008152600401611c5190612f26565b60405180910390fd5b6000611c64611b7e565b90506000815111611c845760405180602001604052806000815250611caf565b80611c8e84611e53565b604051602001611c9f929190612c7e565b6040516020818303038152906040525b915050919050565b505050565b6000611cdd8473ffffffffffffffffffffffffffffffffffffffff16612000565b15611e46578373ffffffffffffffffffffffffffffffffffffffff1663150b7a02611d066111dc565b8786866040518563ffffffff1660e01b8152600401611d289493929190612cbd565b602060405180830381600087803b158015611d4257600080fd5b505af1925050508015611d7357506040513d601f19601f82011682018060405250810190611d7091906123bf565b60015b611df6573d8060008114611da3576040519150601f19603f3d011682016040523d82523d6000602084013e611da8565b606091505b50600081511415611dee576040517f08c379a0000000000000000000000000000000000000000000000000000000008152600401611de590612d46565b60405180910390fd5b805181602001fd5b63150b7a0260e01b7bffffffffffffffffffffffffffffffffffffffffffffffffffffffff1916817bffffffffffffffffffffffffffffffffffffffffffffffffffffffff191614915050611e4b565b600190505b949350505050565b60606000821415611e9b576040518060400160405280600181526020017f30000000000000000000000000000000000000000000000000000000000000008152509050611ffb565b600082905060005b60008214611ecd578080611eb6906132bd565b915050600a82611ec69190613116565b9150611ea3565b60008167ffffffffffffffff811115611f0f577f4e487b7100000000000000000000000000000000000000000000000000000000600052604160045260246000fd5b6040519080825280601f01601f191660200182016040528015611f415781602001600182028036833780820191505090505b5090505b60008514611ff457600182611f5a91906131a1565b9150600a85611f699190613306565b6030611f7591906130c0565b60f81b818381518110611fb1577f4e487b7100000000000000000000000000000000000000000000000000000000600052603260045260246000fd5b60200101907effffffffffffffffffffffffffffffffffffffffffffffffffffffffffffff1916908160001a905350600a85611fed9190613116565b9450611f45565b8093505050505b919050565b600080823b905060008111915050919050565b82805461201f9061328b565b90600052602060002090601f0160209004810192826120415760008555612088565b82601f1061205a57805160ff1916838001178555612088565b82800160010185558215612088579182015b8281111561208757825182559160200191906001019061206c565b5b5090506120959190612099565b5090565b5b808211156120b257600081600090555060010161209a565b5090565b60006120c96120c484613012565b612fe1565b9050828152602081018484840111156120e157600080fd5b6120ec848285613249565b509392505050565b600061210761210284613042565b612fe1565b90508281526020810184848401111561211f57600080fd5b61212a848285613249565b509392505050565b60008135905061214181613404565b92915050565b6000813590506121568161341b565b92915050565b60008135905061216b81613432565b92915050565b60008151905061218081613432565b92915050565b600082601f83011261219757600080fd5b81356121a78482602086016120b6565b91505092915050565b600082601f8301126121c157600080fd5b81356121d18482602086016120f4565b91505092915050565b6000813590506121e981613449565b92915050565b60006020828403121561220157600080fd5b600061220f84828501612132565b91505092915050565b6000806040838503121561222b57600080fd5b600061223985828601612132565b925050602061224a85828601612132565b9150509250929050565b60008060006060848603121561226957600080fd5b600061227786828701612132565b935050602061228886828701612132565b9250506040612299868287016121da565b9150509250925092565b600080600080608085870312156122b957600080fd5b60006122c787828801612132565b94505060206122d887828801612132565b93505060406122e9878288016121da565b925050606085013567ffffffffffffffff81111561230657600080fd5b61231287828801612186565b91505092959194509250565b6000806040838503121561233157600080fd5b600061233f85828601612132565b925050602061235085828601612147565b9150509250929050565b6000806040838503121561236d57600080fd5b600061237b85828601612132565b925050602061238c858286016121da565b9150509250929050565b6000602082840312156123a857600080fd5b60006123b68482850161215c565b91505092915050565b6000602082840312156123d157600080fd5b60006123df84828501612171565b91505092915050565b6000602082840312156123fa57600080fd5b600082013567ffffffffffffffff81111561241457600080fd5b612420848285016121b0565b91505092915050565b60006020828403121561243b57600080fd5b6000612449848285016121da565b91505092915050565b61245b816131d5565b82525050565b61246a816131e7565b82525050565b600061247b82613072565b6124858185613088565b9350612495818560208601613258565b61249e816133f3565b840191505092915050565b60006124b482613072565b6124be8185613099565b93506124ce818560208601613258565b80840191505092915050565b60006124e58261307d565b6124ef81856130a4565b93506124ff818560208601613258565b612508816133f3565b840191505092915050565b600061251e8261307d565b61252881856130b5565b9350612538818560208601613258565b80840191505092915050565b60006125516032836130a4565b91507f4552433732313a207472616e7366657220746f206e6f6e20455243373231526560008301527f63656976657220696d706c656d656e74657200000000000000000000000000006020830152604082019050919050565b60006125b76026836130a4565b91507f4f776e61626c653a206e6577206f776e657220697320746865207a65726f206160008301527f64647265737300000000000000000000000000000000000000000000000000006020830152604082019050919050565b600061261d601c836130a4565b91507f4552433732313a20746f6b656e20616c7265616479206d696e746564000000006000830152602082019050919050565b600061265d6024836130a4565b91507f4552433732313a207472616e7366657220746f20746865207a65726f2061646460008301527f72657373000000000000000000000000000000000000000000000000000000006020830152604082019050919050565b60006126c36019836130a4565b91507f4552433732313a20617070726f766520746f2063616c6c6572000000000000006000830152602082019050919050565b6000612703602c836130a4565b91507f4552433732313a206f70657261746f7220717565727920666f72206e6f6e657860008301527f697374656e7420746f6b656e00000000000000000000000000000000000000006020830152604082019050919050565b60006127696038836130a4565b91507f4552433732313a20617070726f76652063616c6c6572206973206e6f74206f7760008301527f6e6572206e6f7220617070726f76656420666f7220616c6c00000000000000006020830152604082019050919050565b60006127cf602a836130a4565b91507f4552433732313a2062616c616e636520717565727920666f7220746865207a6560008301527f726f2061646472657373000000000000000000000000000000000000000000006020830152604082019050919050565b60006128356029836130a4565b91507f4552433732313a206f776e657220717565727920666f72206e6f6e657869737460008301527f656e7420746f6b656e00000000000000000000000000000000000000000000006020830152604082019050919050565b600061289b6020836130a4565b91507f507572636861736520776f756c6420657863656564206d617820737570706c796000830152602082019050919050565b60006128db6020836130a4565b91507f4552433732313a206d696e7420746f20746865207a65726f20616464726573736000830152602082019050919050565b600061291b6031836130a4565b91507f45524337323155524953746f726167653a2055524920717565727920666f722060008301527f6e6f6e6578697374656e7420746f6b656e0000000000000000000000000000006020830152604082019050919050565b6000612981602c836130a4565b91507f4552433732313a20617070726f76656420717565727920666f72206e6f6e657860008301527f697374656e7420746f6b656e00000000000000000000000000000000000000006020830152604082019050919050565b60006129e76020836130a4565b91507f4f776e61626c653a2063616c6c6572206973206e6f7420746865206f776e65726000830152602082019050919050565b6000612a276029836130a4565b91507f4552433732313a207472616e73666572206f6620746f6b656e2074686174206960008301527f73206e6f74206f776e00000000000000000000000000000000000000000000006020830152604082019050919050565b6000612a8d602f836130a4565b91507f4552433732314d657461646174613a2055524920717565727920666f72206e6f60008301527f6e6578697374656e7420746f6b656e00000000000000000000000000000000006020830152604082019050919050565b6000612af36021836130a4565b91507f4552433732313a20617070726f76616c20746f2063757272656e74206f776e6560008301527f72000000000000000000000000000000000000000000000000000000000000006020830152604082019050919050565b6000612b596010836130a4565b91507f21736166655472616e73666572455448000000000000000000000000000000006000830152602082019050919050565b6000612b996031836130a4565b91507f4552433732313a207472616e736665722063616c6c6572206973206e6f74206f60008301527f776e6572206e6f7220617070726f7665640000000000000000000000000000006020830152604082019050919050565b6000612bff6021836130a4565b91507f4e6f7420656e6f756768204554482073656e743b20636865636b20707269636560008301527f21000000000000000000000000000000000000000000000000000000000000006020830152604082019050919050565b612c618161323f565b82525050565b6000612c7382846124a9565b915081905092915050565b6000612c8a8285612513565b9150612c968284612513565b91508190509392505050565b6000602082019050612cb76000830184612452565b92915050565b6000608082019050612cd26000830187612452565b612cdf6020830186612452565b612cec6040830185612c58565b8181036060830152612cfe8184612470565b905095945050505050565b6000602082019050612d1e6000830184612461565b92915050565b60006020820190508181036000830152612d3e81846124da565b905092915050565b60006020820190508181036000830152612d5f81612544565b9050919050565b60006020820190508181036000830152612d7f816125aa565b9050919050565b60006020820190508181036000830152612d9f81612610565b9050919050565b60006020820190508181036000830152612dbf81612650565b9050919050565b60006020820190508181036000830152612ddf816126b6565b9050919050565b60006020820190508181036000830152612dff816126f6565b9050919050565b60006020820190508181036000830152612e1f8161275c565b9050919050565b60006020820190508181036000830152612e3f816127c2565b9050919050565b60006020820190508181036000830152612e5f81612828565b9050919050565b60006020820190508181036000830152612e7f8161288e565b9050919050565b60006020820190508181036000830152612e9f816128ce565b9050919050565b60006020820190508181036000830152612ebf8161290e565b9050919050565b60006020820190508181036000830152612edf81612974565b9050919050565b60006020820190508181036000830152612eff816129da565b9050919050565b60006020820190508181036000830152612f1f81612a1a565b9050919050565b60006020820190508181036000830152612f3f81612a80565b9050919050565b60006020820190508181036000830152612f5f81612ae6565b9050919050565b60006020820190508181036000830152612f7f81612b4c565b9050919050565b60006020820190508181036000830152612f9f81612b8c565b9050919050565b60006020820190508181036000830152612fbf81612bf2565b9050919050565b6000602082019050612fdb6000830184612c58565b92915050565b6000604051905081810181811067ffffffffffffffff82111715613008576130076133c4565b5b8060405250919050565b600067ffffffffffffffff82111561302d5761302c6133c4565b5b601f19601f8301169050602081019050919050565b600067ffffffffffffffff82111561305d5761305c6133c4565b5b601f19601f8301169050602081019050919050565b600081519050919050565b600081519050919050565b600082825260208201905092915050565b600081905092915050565b600082825260208201905092915050565b600081905092915050565b60006130cb8261323f565b91506130d68361323f565b9250827fffffffffffffffffffffffffffffffffffffffffffffffffffffffffffffffff0382111561310b5761310a613337565b5b828201905092915050565b60006131218261323f565b915061312c8361323f565b92508261313c5761313b613366565b5b828204905092915050565b60006131528261323f565b915061315d8361323f565b9250817fffffffffffffffffffffffffffffffffffffffffffffffffffffffffffffffff048311821515161561319657613195613337565b5b828202905092915050565b60006131ac8261323f565b91506131b78361323f565b9250828210156131ca576131c9613337565b5b828203905092915050565b60006131e08261321f565b9050919050565b60008115159050919050565b60007fffffffff0000000000000000000000000000000000000000000000000000000082169050919050565b600073ffffffffffffffffffffffffffffffffffffffff82169050919050565b6000819050919050565b82818337600083830152505050565b60005b8381101561327657808201518184015260208101905061325b565b83811115613285576000848401525b50505050565b600060028204905060018216806132a357607f821691505b602082108114156132b7576132b6613395565b5b50919050565b60006132c88261323f565b91507fffffffffffffffffffffffffffffffffffffffffffffffffffffffffffffffff8214156132fb576132fa613337565b5b600182019050919050565b60006133118261323f565b915061331c8361323f565b92508261332c5761332b613366565b5b828206905092915050565b7f4e487b7100000000000000000000000000000000000000000000000000000000600052601160045260246000fd5b7f4e487b7100000000000000000000000000000000000000000000000000000000600052601260045260246000fd5b7f4e487b7100000000000000000000000000000000000000000000000000000000600052602260045260246000fd5b7f4e487b7100000000000000000000000000000000000000000000000000000000600052604160045260246000fd5b6000601f19601f8301169050919050565b61340d816131d5565b811461341857600080fd5b50565b613424816131e7565b811461342f57600080fd5b50565b61343b816131f3565b811461344657600080fd5b50565b6134528161323f565b811461345d57600080fd5b5056fea26469706673582212205d3522cd135bfbb120ebd2a0c4d87e71db5bcd02f3cdb820588c85644d99b79964736f6c63430008000033",
    "linkReferences": {},
    "deployedLinkReferences": {}
}